{
  "contractName": "AssetInterface",
  "abi": [
    {
      "inputs": [
        {
          "internalType": "address",
          "name": "_ownerAddress",
          "type": "address"
        },
        {
          "internalType": "contract AssetManager",
          "name": "_parent",
          "type": "address"
        },
        {
          "internalType": "uint256",
          "name": "_NPA_ID",
          "type": "uint256"
        },
        {
          "internalType": "string",
          "name": "_assetOnAuction",
          "type": "string"
        },
        {
          "internalType": "string",
          "name": "_bankName",
          "type": "string"
        },
        {
          "internalType": "uint256",
          "name": "_auctionID",
          "type": "uint256"
        },
        {
          "internalType": "uint256",
          "name": "_eventType",
          "type": "uint256"
        },
        {
          "internalType": "string",
          "name": "_city",
          "type": "string"
        },
        {
          "internalType": "uint256",
          "name": "_reservePrice",
          "type": "uint256"
        },
        {
          "internalType": "uint256",
          "name": "_EMD",
          "type": "uint256"
        },
        {
          "internalType": "uint256",
          "name": "_bidMultipliers",
          "type": "uint256"
        },
        {
          "internalType": "uint256",
          "name": "_timeStamp",
          "type": "uint256"
        }
      ],
      "stateMutability": "nonpayable",
      "type": "constructor"
    },
    {
      "anonymous": false,
      "inputs": [
        {
          "indexed": true,
          "internalType": "address",
          "name": "previousOwner",
          "type": "address"
        },
        {
          "indexed": true,
          "internalType": "address",
          "name": "newOwner",
          "type": "address"
        }
      ],
      "name": "OwnershipTransferred",
      "type": "event"
    },
    {
      "anonymous": false,
      "inputs": [
        {
          "indexed": false,
          "internalType": "address",
          "name": "_newOwner",
          "type": "address"
        }
      ],
      "name": "newOwnerAssigned",
      "type": "event"
    },
    {
      "inputs": [],
      "name": "owner",
      "outputs": [
        {
          "internalType": "address",
          "name": "",
          "type": "address"
        }
      ],
      "stateMutability": "view",
      "type": "function"
    },
    {
      "stateMutability": "payable",
      "type": "receive"
    },
    {
      "inputs": [],
      "name": "getNPADetails",
      "outputs": [
        {
          "internalType": "uint256",
          "name": "_NPA_ID",
          "type": "uint256"
        },
        {
          "internalType": "string",
          "name": "_assetOnAuction",
          "type": "string"
        },
        {
          "internalType": "string",
          "name": "_bankName",
          "type": "string"
        },
        {
          "internalType": "uint256",
          "name": "_auctionID",
          "type": "uint256"
        },
        {
          "internalType": "uint256",
          "name": "_eventType",
          "type": "uint256"
        },
        {
          "internalType": "string",
          "name": "_city",
          "type": "string"
        },
        {
          "internalType": "uint256",
          "name": "_reservePrice",
          "type": "uint256"
        },
        {
          "internalType": "uint256",
          "name": "_EMD",
          "type": "uint256"
        },
        {
          "internalType": "uint256",
          "name": "_bidMultipliers",
          "type": "uint256"
        },
        {
          "internalType": "uint256",
          "name": "_timeStamp",
          "type": "uint256"
        }
      ],
      "stateMutability": "view",
      "type": "function"
    },
    {
      "inputs": [],
      "name": "transferOwnership",
      "outputs": [],
      "stateMutability": "nonpayable",
      "type": "function"
    },
    {
      "inputs": [],
      "name": "getBalance",
      "outputs": [
        {
          "internalType": "uint256",
          "name": "",
          "type": "uint256"
        }
      ],
      "stateMutability": "view",
      "type": "function"
    },
    {
      "inputs": [
        {
          "internalType": "address",
          "name": "_newOwner",
          "type": "address"
        }
      ],
      "name": "setNewOwner",
      "outputs": [],
      "stateMutability": "nonpayable",
      "type": "function"
    },
    {
      "inputs": [],
      "name": "getNewOwner",
      "outputs": [
        {
          "internalType": "address",
          "name": "",
          "type": "address"
        }
      ],
      "stateMutability": "view",
      "type": "function"
    }
  ],
  "bytecode": "0x6080604052670de0b6b3a76400006001553480156200001d57600080fd5b50604051620015f1380380620015f183398181016040526101808110156200004457600080fd5b81019080805190602001909291908051906020019092919080519060200190929190805160405193929190846401000000008211156200008357600080fd5b838201915060208201858111156200009a57600080fd5b8251866001820283011164010000000082111715620000b857600080fd5b8083526020830192505050908051906020019080838360005b83811015620000ee578082015181840152602081019050620000d1565b50505050905090810190601f1680156200011c5780820380516001836020036101000a031916815260200191505b50604052602001805160405193929190846401000000008211156200014057600080fd5b838201915060208201858111156200015757600080fd5b82518660018202830111640100000000821117156200017557600080fd5b8083526020830192505050908051906020019080838360005b83811015620001ab5780820151818401526020810190506200018e565b50505050905090810190601f168015620001d95780820380516001836020036101000a031916815260200191505b506040526020018051906020019092919080519060200190929190805160405193929190846401000000008211156200021157600080fd5b838201915060208201858111156200022857600080fd5b82518660018202830111640100000000821117156200024657600080fd5b8083526020830192505050908051906020019080838360005b838110156200027c5780820151818401526020810190506200025f565b50505050905090810190601f168015620002aa5780820380516001836020036101000a031916815260200191505b50604052602001805190602001909291908051906020019092919080519060200190929190805190602001909291905050506000620002ee6200049e60201b60201c565b9050806000806101000a81548173ffffffffffffffffffffffffffffffffffffffff021916908373ffffffffffffffffffffffffffffffffffffffff1602179055508073ffffffffffffffffffffffffffffffffffffffff16600073ffffffffffffffffffffffffffffffffffffffff167f8be0079c531659141344cd1fd0a4f28419497f9722a3daafe3b4186f6b6457e060405160405180910390a3508a600f60006101000a81548173ffffffffffffffffffffffffffffffffffffffff021916908373ffffffffffffffffffffffffffffffffffffffff160217905550896005819055508860069080519060200190620003ec929190620006d2565b50876007908051906020019062000405929190620006d2565b50866008819055508560098190555084600a90805190602001906200042c929190620006d2565b5083600b8190555082600c8190555081600d8190555080600e819055506000600460006101000a81548160ff021916908360028111156200046957fe5b0217905550620004848c620004a660201b62000b9c1760201c565b600260038190555050505050505050505050505062000781565b600033905090565b620004b66200049e60201b60201c565b73ffffffffffffffffffffffffffffffffffffffff166000809054906101000a900473ffffffffffffffffffffffffffffffffffffffff1673ffffffffffffffffffffffffffffffffffffffff161462000578576040517f08c379a00000000000000000000000000000000000000000000000000000000081526004018080602001828103825260208152602001807f4f776e61626c653a2063616c6c6572206973206e6f7420746865206f776e657281525060200191505060405180910390fd5b62000589816200058c60201b60201c565b50565b600073ffffffffffffffffffffffffffffffffffffffff168173ffffffffffffffffffffffffffffffffffffffff16141562000614576040517f08c379a0000000000000000000000000000000000000000000000000000000008152600401808060200182810382526026815260200180620015cb6026913960400191505060405180910390fd5b8073ffffffffffffffffffffffffffffffffffffffff166000809054906101000a900473ffffffffffffffffffffffffffffffffffffffff1673ffffffffffffffffffffffffffffffffffffffff167f8be0079c531659141344cd1fd0a4f28419497f9722a3daafe3b4186f6b6457e060405160405180910390a3806000806101000a81548173ffffffffffffffffffffffffffffffffffffffff021916908373ffffffffffffffffffffffffffffffffffffffff16021790555050565b828054600181600116156101000203166002900490600052602060002090601f016020900481019282601f106200071557805160ff191683800117855562000746565b8280016001018555821562000746579182015b828111156200074557825182559160200191906001019062000728565b5b50905062000755919062000759565b5090565b6200077e91905b808211156200077a57600081600090555060010162000760565b5090565b90565b610e3a80620007916000396000f3fe6080604052600436106100595760003560e01c806312065fe01461019e5780633e2fe149146101c9578063880ad0af146102205780638da5cb5b14610237578063c899c9a41461028e578063f5a1f5b41461042757610199565b366101995734600154600354021480156100ff5750600260009054906101000a900473ffffffffffffffffffffffffffffffffffffffff1673ffffffffffffffffffffffffffffffffffffffff163373ffffffffffffffffffffffffffffffffffffffff161480156100fe57506100ce610478565b73ffffffffffffffffffffffffffffffffffffffff163373ffffffffffffffffffffffffffffffffffffffff1614155b5b610171576040517f08c379a000000000000000000000000000000000000000000000000000000000815260040180806020018281038252600b8152602001807f496e76616c69642054786e00000000000000000000000000000000000000000081525060200191505060405180910390fd5b3373ffffffffffffffffffffffffffffffffffffffff16600260009054906101000a90505050005b600080fd5b3480156101aa57600080fd5b506101b36104a1565b6040518082815260200191505060405180910390f35b3480156101d557600080fd5b506101de6104c0565b604051808273ffffffffffffffffffffffffffffffffffffffff1673ffffffffffffffffffffffffffffffffffffffff16815260200191505060405180910390f35b34801561022c57600080fd5b506102356104ea565b005b34801561024357600080fd5b5061024c610478565b604051808273ffffffffffffffffffffffffffffffffffffffff1673ffffffffffffffffffffffffffffffffffffffff16815260200191505060405180910390f35b34801561029a57600080fd5b506102a361073c565b604051808b815260200180602001806020018a81526020018981526020018060200188815260200187815260200186815260200185815260200184810384528d818151815260200191508051906020019080838360005b838110156103155780820151818401526020810190506102fa565b50505050905090810190601f1680156103425780820380516001836020036101000a031916815260200191505b5084810383528c818151815260200191508051906020019080838360005b8381101561037b578082015181840152602081019050610360565b50505050905090810190601f1680156103a85780820380516001836020036101000a031916815260200191505b50848103825289818151815260200191508051906020019080838360005b838110156103e15780820151818401526020810190506103c6565b50505050905090810190601f16801561040e5780820380516001836020036101000a031916815260200191505b509d505050505050505050505050505060405180910390f35b34801561043357600080fd5b506104766004803603602081101561044a57600080fd5b81019080803573ffffffffffffffffffffffffffffffffffffffff16906020019092919050505061095b565b005b60008060009054906101000a900473ffffffffffffffffffffffffffffffffffffffff16905090565b60003073ffffffffffffffffffffffffffffffffffffffff1631905090565b6000600260009054906101000a900473ffffffffffffffffffffffffffffffffffffffff16905090565b6104f2610b94565b73ffffffffffffffffffffffffffffffffffffffff166000809054906101000a900473ffffffffffffffffffffffffffffffffffffffff1673ffffffffffffffffffffffffffffffffffffffff16146105b3576040517f08c379a00000000000000000000000000000000000000000000000000000000081526004018080602001828103825260208152602001807f4f776e61626c653a2063616c6c6572206973206e6f7420746865206f776e657281525060200191505060405180910390fd5b600073ffffffffffffffffffffffffffffffffffffffff16600260009054906101000a900473ffffffffffffffffffffffffffffffffffffffff1673ffffffffffffffffffffffffffffffffffffffff161415610678576040517f08c379a00000000000000000000000000000000000000000000000000000000081526004018080602001828103825260198152602001807f43616e6e6f74207472616e73666572206f6e776572736869700000000000000081525060200191505060405180910390fd5b610680610478565b73ffffffffffffffffffffffffffffffffffffffff166108fc6106a16104a1565b9081150290604051600060405180830381858888f193505050501580156106cc573d6000803e3d6000fd5b506106f8600260009054906101000a900473ffffffffffffffffffffffffffffffffffffffff16610b9c565b6000600260006101000a81548173ffffffffffffffffffffffffffffffffffffffff021916908373ffffffffffffffffffffffffffffffffffffffff160217905550565b6000606080600080606060008060008060055460066007600854600954600a600b54600c54600d54600e54888054600181600116156101000203166002900480601f0160208091040260200160405190810160405280929190818152602001828054600181600116156101000203166002900480156107fc5780601f106107d1576101008083540402835291602001916107fc565b820191906000526020600020905b8154815290600101906020018083116107df57829003601f168201915b50505050509850878054600181600116156101000203166002900480601f0160208091040260200160405190810160405280929190818152602001828054600181600116156101000203166002900480156108985780601f1061086d57610100808354040283529160200191610898565b820191906000526020600020905b81548152906001019060200180831161087b57829003601f168201915b50505050509750848054600181600116156101000203166002900480601f0160208091040260200160405190810160405280929190818152602001828054600181600116156101000203166002900480156109345780601f1061090957610100808354040283529160200191610934565b820191906000526020600020905b81548152906001019060200180831161091757829003601f168201915b50505050509450995099509950995099509950995099509950995090919293949596979899565b610963610b94565b73ffffffffffffffffffffffffffffffffffffffff166000809054906101000a900473ffffffffffffffffffffffffffffffffffffffff1673ffffffffffffffffffffffffffffffffffffffff1614610a24576040517f08c379a00000000000000000000000000000000000000000000000000000000081526004018080602001828103825260208152602001807f4f776e61626c653a2063616c6c6572206973206e6f7420746865206f776e657281525060200191505060405180910390fd5b600073ffffffffffffffffffffffffffffffffffffffff16600260009054906101000a900473ffffffffffffffffffffffffffffffffffffffff1673ffffffffffffffffffffffffffffffffffffffff1614610acb576040517f08c379a0000000000000000000000000000000000000000000000000000000008152600401808060200182810382526029815260200180610ddc6029913960400191505060405180910390fd5b80600260006101000a81548173ffffffffffffffffffffffffffffffffffffffff021916908373ffffffffffffffffffffffffffffffffffffffff1602179055507f87b4da307457b6261615bf8bd4c11a0245bf153d90edfa5e36f840dd42f55027600260009054906101000a900473ffffffffffffffffffffffffffffffffffffffff16604051808273ffffffffffffffffffffffffffffffffffffffff1673ffffffffffffffffffffffffffffffffffffffff16815260200191505060405180910390a150565b600033905090565b610ba4610b94565b73ffffffffffffffffffffffffffffffffffffffff166000809054906101000a900473ffffffffffffffffffffffffffffffffffffffff1673ffffffffffffffffffffffffffffffffffffffff1614610c65576040517f08c379a00000000000000000000000000000000000000000000000000000000081526004018080602001828103825260208152602001807f4f776e61626c653a2063616c6c6572206973206e6f7420746865206f776e657281525060200191505060405180910390fd5b610c6e81610c71565b50565b600073ffffffffffffffffffffffffffffffffffffffff168173ffffffffffffffffffffffffffffffffffffffff161415610cf7576040517f08c379a0000000000000000000000000000000000000000000000000000000008152600401808060200182810382526026815260200180610db66026913960400191505060405180910390fd5b8073ffffffffffffffffffffffffffffffffffffffff166000809054906101000a900473ffffffffffffffffffffffffffffffffffffffff1673ffffffffffffffffffffffffffffffffffffffff167f8be0079c531659141344cd1fd0a4f28419497f9722a3daafe3b4186f6b6457e060405160405180910390a3806000806101000a81548173ffffffffffffffffffffffffffffffffffffffff021916908373ffffffffffffffffffffffffffffffffffffffff1602179055505056fe4f776e61626c653a206e6577206f776e657220697320746865207a65726f206164647265737350726576696f7573206f776e65727368697020686176656e2774207472616e73666572656420796574a2646970667358221220fc222736e361fff1c666d5766a763479ae42ffbf283204a667558efeb6df7ead64736f6c634300060000334f776e61626c653a206e6577206f776e657220697320746865207a65726f2061646472657373",
  "source": "//1) Querying  [compulsory]\n//2) Bi-sell function   [icing on the cake]\n//3) bidding\n//4) Team Contribution\n\npragma solidity ^0.6.0;\n\nimport \"./AssetManager.sol\";\nimport \"./Ownable.sol\";\n\ncontract AssetInterface is Ownable{\n\n    enum assetState{Created, onAuction, Auctioned}\n\n    uint oneEther = 1 ether;\n\n    address newOwner;\n    uint price;\n    assetState state;\n    uint NPA_ID;\n    string assetOnAuction;\n    string bankName;\n    uint auctionID;\n    uint eventType;\n    string city;\n    uint reservePrice;\n    uint EMD;\n    uint bidMultipliers;\n    uint timeStamp;\n\n    AssetManager assetManager;\n    \n    event newOwnerAssigned(address _newOwner);\n\n    constructor(address _ownerAddress,\n        AssetManager _parent,\n        uint _NPA_ID,\n        string memory _assetOnAuction,\n        string memory _bankName, uint _auctionID, uint _eventType,\n        string memory _city,\n        uint _reservePrice, uint _EMD, uint _bidMultipliers,uint _timeStamp) public{\n        assetManager = _parent;\n        NPA_ID = _NPA_ID;\n        assetOnAuction = _assetOnAuction;\n        bankName=_bankName;\n        auctionID=_auctionID;\n        eventType = _eventType;\n        city=_city;\n        reservePrice=_reservePrice;\n        EMD=_EMD;\n        bidMultipliers=_bidMultipliers;\n        timeStamp=_timeStamp;\n        state = assetState.Created;\n        Ownable.transferOwnership(_ownerAddress);\n        price=2;\n\n    }\n\n    function getNPADetails() public view returns(uint _NPA_ID, string memory _assetOnAuction, string memory _bankName, uint _auctionID, uint _eventType, string memory _city, uint _reservePrice, uint _EMD, uint _bidMultipliers, uint _timeStamp){\n        return (NPA_ID, assetOnAuction, bankName, auctionID, eventType, city, reservePrice, EMD, bidMultipliers, timeStamp);\n    }\n\n    function transferOwnership() public onlyOwner {\n        require(newOwner!=address(0),\"Cannot transfer onwership\");\n        payable(owner()).transfer(getBalance());\n        Ownable.transferOwnership(newOwner);\n        newOwner=address(0);\n    }\n\n    function getBalance() view public returns(uint){\n        return payable(address(this)).balance;\n    }\n\n    function setNewOwner(address _newOwner) public onlyOwner {\n        require(newOwner==address(0),\"Previous ownership haven't transfered yet\");\n        newOwner=_newOwner;\n        emit newOwnerAssigned(newOwner);\n    }\n\n    function getNewOwner() public view returns(address){\n        return newOwner;\n    }\n\n    receive() external payable {\n        require(((price*oneEther)==msg.value) && (msg.sender==newOwner&&msg.sender!=owner()),\"Invalid Txn\");\n        newOwner==msg.sender;\n    }\n}\n",
  "sourcePath": "/home/mihirsinh/Desktop/CollegeProjects/BankChain/Server/contracts/AssetInterface.sol",
  "compiler": {
    "name": "solc",
    "version": "0.6.0+commit.26b70077.Emscripten.clang"
  },
  "schemaVersion": "3.0.23",
  "updatedAt": "2020-05-18T10:08:03.000Z",
  "devdoc": {
    "methods": {
      "owner()": {
        "details": "Returns the address of the current owner."
      }
    }
  },
  "userdoc": {
    "methods": {}
  }
}