{
  "contractName": "Auction",
  "abi": [
    {
      "inputs": [
        {
          "internalType": "address payable",
          "name": "_asset",
          "type": "address"
        },
        {
          "internalType": "address",
          "name": "_manager",
          "type": "address"
        }
      ],
      "stateMutability": "nonpayable",
      "type": "constructor"
    },
    {
      "anonymous": false,
      "inputs": [
        {
          "indexed": false,
          "internalType": "uint256",
          "name": "_bid",
          "type": "uint256"
        },
        {
          "indexed": false,
          "internalType": "address",
          "name": "_bidder",
          "type": "address"
        }
      ],
      "name": "HighBidAlert",
      "type": "event"
    },
    {
      "anonymous": false,
      "inputs": [
        {
          "indexed": true,
          "internalType": "address",
          "name": "previousOwner",
          "type": "address"
        },
        {
          "indexed": true,
          "internalType": "address",
          "name": "newOwner",
          "type": "address"
        }
      ],
      "name": "OwnershipTransferred",
      "type": "event"
    },
    {
      "anonymous": false,
      "inputs": [
        {
          "indexed": false,
          "internalType": "address",
          "name": "_auction",
          "type": "address"
        },
        {
          "indexed": false,
          "internalType": "address",
          "name": "_asset",
          "type": "address"
        }
      ],
      "name": "auctionCanceled",
      "type": "event"
    },
    {
      "anonymous": false,
      "inputs": [
        {
          "indexed": false,
          "internalType": "address",
          "name": "_auction",
          "type": "address"
        },
        {
          "indexed": false,
          "internalType": "address",
          "name": "_asset",
          "type": "address"
        }
      ],
      "name": "auctionEnded",
      "type": "event"
    },
    {
      "anonymous": false,
      "inputs": [
        {
          "indexed": false,
          "internalType": "address",
          "name": "_auction",
          "type": "address"
        },
        {
          "indexed": false,
          "internalType": "address",
          "name": "_asset",
          "type": "address"
        }
      ],
      "name": "auctionStarted",
      "type": "event"
    },
    {
      "anonymous": false,
      "inputs": [
        {
          "indexed": false,
          "internalType": "uint256",
          "name": "_bid",
          "type": "uint256"
        },
        {
          "indexed": false,
          "internalType": "address",
          "name": "_bidder",
          "type": "address"
        }
      ],
      "name": "bidWithdrawn",
      "type": "event"
    },
    {
      "anonymous": false,
      "inputs": [
        {
          "indexed": false,
          "internalType": "address",
          "name": "_new",
          "type": "address"
        }
      ],
      "name": "newOwner",
      "type": "event"
    },
    {
      "anonymous": false,
      "inputs": [
        {
          "indexed": false,
          "internalType": "address",
          "name": "newOwner",
          "type": "address"
        }
      ],
      "name": "setOwner",
      "type": "event"
    },
    {
      "inputs": [],
      "name": "owner",
      "outputs": [
        {
          "internalType": "address",
          "name": "",
          "type": "address"
        }
      ],
      "stateMutability": "view",
      "type": "function"
    },
    {
      "inputs": [],
      "name": "startAuction",
      "outputs": [],
      "stateMutability": "nonpayable",
      "type": "function"
    },
    {
      "inputs": [],
      "name": "bid",
      "outputs": [],
      "stateMutability": "payable",
      "type": "function"
    },
    {
      "inputs": [],
      "name": "withdrawBid",
      "outputs": [],
      "stateMutability": "nonpayable",
      "type": "function"
    },
    {
      "inputs": [],
      "name": "cancelAuction",
      "outputs": [],
      "stateMutability": "nonpayable",
      "type": "function"
    },
    {
      "inputs": [],
      "name": "toggleStopAuction",
      "outputs": [],
      "stateMutability": "nonpayable",
      "type": "function"
    },
    {
      "inputs": [],
      "name": "endAuction",
      "outputs": [],
      "stateMutability": "nonpayable",
      "type": "function"
    },
    {
      "inputs": [],
      "name": "getBalance",
      "outputs": [
        {
          "internalType": "uint256",
          "name": "",
          "type": "uint256"
        }
      ],
      "stateMutability": "view",
      "type": "function"
    },
    {
      "inputs": [],
      "name": "getHighestBid",
      "outputs": [
        {
          "internalType": "uint256",
          "name": "",
          "type": "uint256"
        },
        {
          "internalType": "address",
          "name": "",
          "type": "address"
        }
      ],
      "stateMutability": "view",
      "type": "function"
    },
    {
      "inputs": [],
      "name": "getAssetOnAuction",
      "outputs": [
        {
          "internalType": "address",
          "name": "",
          "type": "address"
        }
      ],
      "stateMutability": "view",
      "type": "function"
    },
    {
      "inputs": [],
      "name": "getMyBid",
      "outputs": [
        {
          "internalType": "uint256",
          "name": "bid",
          "type": "uint256"
        }
      ],
      "stateMutability": "view",
      "type": "function"
    },
    {
      "inputs": [],
      "name": "ping",
      "outputs": [
        {
          "internalType": "bool",
          "name": "",
          "type": "bool"
        }
      ],
      "stateMutability": "view",
      "type": "function"
    }
  ],
  "bytecode": "0x608060405260008060156101000a81548160ff02191690831515021790555034801561002a57600080fd5b5060405162001a5438038062001a548339818101604052604081101561004f57600080fd5b810190808051906020019092919080519060200190929190505050600061007a6102c860201b60201c565b9050806000806101000a81548173ffffffffffffffffffffffffffffffffffffffff021916908373ffffffffffffffffffffffffffffffffffffffff1602179055508073ffffffffffffffffffffffffffffffffffffffff16600073ffffffffffffffffffffffffffffffffffffffff167f8be0079c531659141344cd1fd0a4f28419497f9722a3daafe3b4186f6b6457e060405160405180910390a35081600260006101000a81548173ffffffffffffffffffffffffffffffffffffffff021916908373ffffffffffffffffffffffffffffffffffffffff160217905550600260009054906101000a900473ffffffffffffffffffffffffffffffffffffffff1673ffffffffffffffffffffffffffffffffffffffff16638da5cb5b6040518163ffffffff1660e01b815260040160206040518083038186803b1580156101c157600080fd5b505afa1580156101d5573d6000803e3d6000fd5b505050506040513d60208110156101eb57600080fd5b810190808051906020019092919050505073ffffffffffffffffffffffffffffffffffffffff163373ffffffffffffffffffffffffffffffffffffffff1614610280576040517f08c379a000000000000000000000000000000000000000000000000000000000815260040180806020018281038252602281526020018062001a326022913960400191505060405180910390fd5b80600160006101000a81548173ffffffffffffffffffffffffffffffffffffffff021916908373ffffffffffffffffffffffffffffffffffffffff16021790555050506102d0565b600033905090565b61175280620002e06000396000f3fe6080604052600436106100a75760003560e01c80636b64c769116100645780636b64c769146101dc57806372bd631b146101f357806384ddc67f1461020a5780638da5cb5b146102355780638fa8b7901461028c578063fe67a54b146102a3576100a7565b806312065fe0146100ac5780631998aeef146100d757806337271cc7146100e1578063465fb52a146100f85780634979440a1461014f5780635c36b186146101ad575b600080fd5b3480156100b857600080fd5b506100c16102ba565b6040518082815260200191505060405180910390f35b6100df6102d9565b005b3480156100ed57600080fd5b506100f66106b9565b005b34801561010457600080fd5b5061010d61088e565b604051808273ffffffffffffffffffffffffffffffffffffffff1673ffffffffffffffffffffffffffffffffffffffff16815260200191505060405180910390f35b34801561015b57600080fd5b506101646108b8565b604051808381526020018273ffffffffffffffffffffffffffffffffffffffff1673ffffffffffffffffffffffffffffffffffffffff1681526020019250505060405180910390f35b3480156101b957600080fd5b506101c26108e9565b604051808215151515815260200191505060405180910390f35b3480156101e857600080fd5b506101f16108ff565b005b3480156101ff57600080fd5b50610208610ac9565b005b34801561021657600080fd5b5061021f610dfd565b6040518082815260200191505060405180910390f35b34801561024157600080fd5b5061024a610e44565b604051808273ffffffffffffffffffffffffffffffffffffffff1673ffffffffffffffffffffffffffffffffffffffff16815260200191505060405180910390f35b34801561029857600080fd5b506102a1610e6d565b005b3480156102af57600080fd5b506102b86111e5565b005b60003073ffffffffffffffffffffffffffffffffffffffff1631905090565b600060149054906101000a900460ff1680156103015750600060159054906101000a900460ff165b61030757fe5b61030f610e44565b73ffffffffffffffffffffffffffffffffffffffff163373ffffffffffffffffffffffffffffffffffffffff1614156103b0576040517f08c379a00000000000000000000000000000000000000000000000000000000081526004018080602001828103825260108152602001807f4f776e65722063616e6e6f74206269640000000000000000000000000000000081525060200191505060405180910390fd5b600560003373ffffffffffffffffffffffffffffffffffffffff1673ffffffffffffffffffffffffffffffffffffffff1681526020019081526020016000205434600560003373ffffffffffffffffffffffffffffffffffffffff1673ffffffffffffffffffffffffffffffffffffffff16815260200190815260200160002054011161043957fe5b60035434600560003373ffffffffffffffffffffffffffffffffffffffff1673ffffffffffffffffffffffffffffffffffffffff1681526020019081526020016000205401116104f1576040517f08c379a000000000000000000000000000000000000000000000000000000000815260040180806020018281038252600f8152602001807f556e6e656365737361727920426964000000000000000000000000000000000081525060200191505060405180910390fd5b34600560003373ffffffffffffffffffffffffffffffffffffffff1673ffffffffffffffffffffffffffffffffffffffff168152602001908152602001600020600082825401925050819055506006339080600181540180825580915050600190039060005260206000200160009091909190916101000a81548173ffffffffffffffffffffffffffffffffffffffff021916908373ffffffffffffffffffffffffffffffffffffffff160217905550600560003373ffffffffffffffffffffffffffffffffffffffff1673ffffffffffffffffffffffffffffffffffffffff1681526020019081526020016000205460038190555033600460006101000a81548173ffffffffffffffffffffffffffffffffffffffff021916908373ffffffffffffffffffffffffffffffffffffffff1602179055507f1329d346fce8ee339add506cbc9b12275bcaab39c04bdc96789e42e64bb9d32e600354600460009054906101000a900473ffffffffffffffffffffffffffffffffffffffff16604051808381526020018273ffffffffffffffffffffffffffffffffffffffff1673ffffffffffffffffffffffffffffffffffffffff1681526020019250505060405180910390a1565b6000600560003373ffffffffffffffffffffffffffffffffffffffff1673ffffffffffffffffffffffffffffffffffffffff168152602001908152602001600020541415801561074a5750600560003373ffffffffffffffffffffffffffffffffffffffff1673ffffffffffffffffffffffffffffffffffffffff1681526020019081526020016000205460035414155b61075057fe5b6000600560003373ffffffffffffffffffffffffffffffffffffffff1673ffffffffffffffffffffffffffffffffffffffff1681526020019081526020016000205490506000600560003373ffffffffffffffffffffffffffffffffffffffff1673ffffffffffffffffffffffffffffffffffffffff168152602001908152602001600020819055507fb67552fe85ab145f1d186333e421dc227bcb49d373d39880de6f08883271ee948133604051808381526020018273ffffffffffffffffffffffffffffffffffffffff1673ffffffffffffffffffffffffffffffffffffffff1681526020019250505060405180910390a13373ffffffffffffffffffffffffffffffffffffffff166108fc829081150290604051600060405180830381858888f1935050505015801561088a573d6000803e3d6000fd5b5050565b6000600260009054906101000a900473ffffffffffffffffffffffffffffffffffffffff16905090565b600080600354600460009054906101000a900473ffffffffffffffffffffffffffffffffffffffff16915091509091565b60008060149054906101000a900460ff16905090565b610907611588565b73ffffffffffffffffffffffffffffffffffffffff166000809054906101000a900473ffffffffffffffffffffffffffffffffffffffff1673ffffffffffffffffffffffffffffffffffffffff16146109c8576040517f08c379a00000000000000000000000000000000000000000000000000000000081526004018080602001828103825260208152602001807f4f776e61626c653a2063616c6c6572206973206e6f7420746865206f776e657281525060200191505060405180910390fd5b6001600060146101000a81548160ff021916908315150217905550610a0e600160009054906101000a900473ffffffffffffffffffffffffffffffffffffffff16611590565b7f690f892299aedfaa936bb9b015e744d8cbc3886eb2c4d50e34e308624544e9ba30600260009054906101000a900473ffffffffffffffffffffffffffffffffffffffff16604051808373ffffffffffffffffffffffffffffffffffffffff1673ffffffffffffffffffffffffffffffffffffffff1681526020018273ffffffffffffffffffffffffffffffffffffffff1673ffffffffffffffffffffffffffffffffffffffff1681526020019250505060405180910390a1565b610ad1611588565b73ffffffffffffffffffffffffffffffffffffffff166000809054906101000a900473ffffffffffffffffffffffffffffffffffffffff1673ffffffffffffffffffffffffffffffffffffffff1614610b92576040517f08c379a00000000000000000000000000000000000000000000000000000000081526004018080602001828103825260208152602001807f4f776e61626c653a2063616c6c6572206973206e6f7420746865206f776e657281525060200191505060405180910390fd5b60008060146101000a81548160ff0219169083151502179055507f13af4035b0e4e7ec6b922d2e250cb1ea3b75b47dd2a6483cb76d88e6fd98ec3b600460009054906101000a900473ffffffffffffffffffffffffffffffffffffffff16604051808273ffffffffffffffffffffffffffffffffffffffff1673ffffffffffffffffffffffffffffffffffffffff16815260200191505060405180910390a160005b600680549050811015610dcf57600460009054906101000a900473ffffffffffffffffffffffffffffffffffffffff1673ffffffffffffffffffffffffffffffffffffffff1660068281548110610c8757fe5b9060005260206000200160009054906101000a900473ffffffffffffffffffffffffffffffffffffffff1673ffffffffffffffffffffffffffffffffffffffff1614610dc25760068181548110610cda57fe5b9060005260206000200160009054906101000a900473ffffffffffffffffffffffffffffffffffffffff1673ffffffffffffffffffffffffffffffffffffffff166108fc6005600060068581548110610d2f57fe5b9060005260206000200160009054906101000a900473ffffffffffffffffffffffffffffffffffffffff1673ffffffffffffffffffffffffffffffffffffffff1673ffffffffffffffffffffffffffffffffffffffff168152602001908152602001600020549081150290604051600060405180830381858888f19350505050158015610dc0573d6000803e3d6000fd5b505b8080600101915050610c34565b50610dfb600160009054906101000a900473ffffffffffffffffffffffffffffffffffffffff16611590565b565b6000600560003373ffffffffffffffffffffffffffffffffffffffff1673ffffffffffffffffffffffffffffffffffffffff16815260200190815260200160002054905090565b60008060009054906101000a900473ffffffffffffffffffffffffffffffffffffffff16905090565b610e75611588565b73ffffffffffffffffffffffffffffffffffffffff166000809054906101000a900473ffffffffffffffffffffffffffffffffffffffff1673ffffffffffffffffffffffffffffffffffffffff1614610f36576040517f08c379a00000000000000000000000000000000000000000000000000000000081526004018080602001828103825260208152602001807f4f776e61626c653a2063616c6c6572206973206e6f7420746865206f776e657281525060200191505060405180910390fd5b60008060146101000a81548160ff02191690831515021790555060005b6006805490508110156110e05760006005600060068481548110610f7357fe5b9060005260206000200160009054906101000a900473ffffffffffffffffffffffffffffffffffffffff1673ffffffffffffffffffffffffffffffffffffffff1673ffffffffffffffffffffffffffffffffffffffff16815260200190815260200160002054146110d35760068181548110610feb57fe5b9060005260206000200160009054906101000a900473ffffffffffffffffffffffffffffffffffffffff1673ffffffffffffffffffffffffffffffffffffffff166108fc600560006006858154811061104057fe5b9060005260206000200160009054906101000a900473ffffffffffffffffffffffffffffffffffffffff1673ffffffffffffffffffffffffffffffffffffffff1673ffffffffffffffffffffffffffffffffffffffff168152602001908152602001600020549081150290604051600060405180830381858888f193505050501580156110d1573d6000803e3d6000fd5b505b8080600101915050610f53565b5061110c600160009054906101000a900473ffffffffffffffffffffffffffffffffffffffff16611590565b7f0a4fe4fa7df504e1d30362e728250738432dcdd66e6c0505e0fdb22ac08ec22730600260009054906101000a900473ffffffffffffffffffffffffffffffffffffffff16604051808373ffffffffffffffffffffffffffffffffffffffff1673ffffffffffffffffffffffffffffffffffffffff1681526020018273ffffffffffffffffffffffffffffffffffffffff1673ffffffffffffffffffffffffffffffffffffffff1681526020019250505060405180910390a16111cd610e44565b73ffffffffffffffffffffffffffffffffffffffff16ff5b6111ed611588565b73ffffffffffffffffffffffffffffffffffffffff166000809054906101000a900473ffffffffffffffffffffffffffffffffffffffff1673ffffffffffffffffffffffffffffffffffffffff16146112ae576040517f08c379a00000000000000000000000000000000000000000000000000000000081526004018080602001828103825260208152602001807f4f776e61626c653a2063616c6c6572206973206e6f7420746865206f776e657281525060200191505060405180910390fd5b600060149054906101000a900460ff16156112c557fe5b600460009054906101000a900473ffffffffffffffffffffffffffffffffffffffff1673ffffffffffffffffffffffffffffffffffffffff16600260009054906101000a900473ffffffffffffffffffffffffffffffffffffffff1673ffffffffffffffffffffffffffffffffffffffff16638da5cb5b6040518163ffffffff1660e01b815260040160206040518083038186803b15801561136657600080fd5b505afa15801561137a573d6000803e3d6000fd5b505050506040513d602081101561139057600080fd5b810190808051906020019092919050505073ffffffffffffffffffffffffffffffffffffffff161461142a576040517f08c379a000000000000000000000000000000000000000000000000000000000815260040180806020018281038252601d8152602001807f4f776e65727368697020686176656e2774206368616e6765642079657400000081525060200191505060405180910390fd5b7fc18ac0b78dd8d0f4078a5928a3a6cc02f116cebbc4fc1ce5e75bb425dd4a342c30600260009054906101000a900473ffffffffffffffffffffffffffffffffffffffff16604051808373ffffffffffffffffffffffffffffffffffffffff1673ffffffffffffffffffffffffffffffffffffffff1681526020018273ffffffffffffffffffffffffffffffffffffffff1673ffffffffffffffffffffffffffffffffffffffff1681526020019250505060405180910390a17f8595245435170930a21ed26c79efd78952513e5f85ae3d411a586ab25df17bb3600460009054906101000a900473ffffffffffffffffffffffffffffffffffffffff16604051808273ffffffffffffffffffffffffffffffffffffffff1673ffffffffffffffffffffffffffffffffffffffff16815260200191505060405180910390a1611570610e44565b73ffffffffffffffffffffffffffffffffffffffff16ff5b600033905090565b611598611588565b73ffffffffffffffffffffffffffffffffffffffff166000809054906101000a900473ffffffffffffffffffffffffffffffffffffffff1673ffffffffffffffffffffffffffffffffffffffff1614611659576040517f08c379a00000000000000000000000000000000000000000000000000000000081526004018080602001828103825260208152602001807f4f776e61626c653a2063616c6c6572206973206e6f7420746865206f776e657281525060200191505060405180910390fd5b60008190508073ffffffffffffffffffffffffffffffffffffffff1663ef350117600060149054906101000a900460ff166040518263ffffffff1660e01b81526004018082151515158152602001915050602060405180830381600087803b1580156116c457600080fd5b505af11580156116d8573d6000803e3d6000fd5b505050506040513d60208110156116ee57600080fd5b8101908080519060200190929190505050600060156101000a81548160ff021916908315150217905550505056fea264697066735822122003492663e3df7f8b4b0e690319278a1550fab49b36fe1e1ab8f3e0870ed0af5e64736f6c634300060000334f6e6c79204173736574206f776e65722063616e2073746172742061756374696f6e",
  "source": "pragma solidity ^0.6.0;\n\nimport \"./Ownable.sol\";\nimport './AssetInterface.sol';\nimport './AuctionManager.sol';\n\ncontract Auction is Ownable {\n\n    bool isActive;\n    bool isNotified=false;\n    address manager;\n\n    //Asset which is on auction\n    AssetInterface asset;\n\n    uint highestBid;\n    address highestBidder;\n\n    mapping(address=>uint)  bidders;\n    address[]  bidderArray;\n\n    event auctionStarted(address _auction, address _asset);\n    event HighBidAlert(uint _bid, address _bidder);\n    event bidWithdrawn(uint _bid, address _bidder);\n    event newOwner(address _new);\n    event auctionCanceled(address _auction, address _asset);\n    event auctionEnded(address _auction, address _asset);\n    event setOwner(address newOwner);\n\n    constructor(address payable _asset, address _manager) public {\n        asset = AssetInterface(_asset);\n        require(msg.sender==asset.owner(),\"Only Asset owner can start auction\");\n        manager=_manager;\n    }\n\n    function startAuction() public onlyOwner{\n        isActive=true;\n        notifyAuctionManager(manager);\n        emit auctionStarted(address(this),address(asset));\n    }\n\n    function bid() public payable{\n        assert(isActive&&isNotified);\n        require(msg.sender!=owner(),\"Owner cannot bid\");\n        assert(bidders[msg.sender]+msg.value>bidders[msg.sender]);\n        require(bidders[msg.sender]+msg.value>highestBid,\"Unnecessary Bid\");\n        bidders[msg.sender]+=msg.value;\n        bidderArray.push(msg.sender);\n        highestBid=bidders[msg.sender];\n        highestBidder=msg.sender;\n        emit HighBidAlert(highestBid,highestBidder);\n    }\n\n    function withdrawBid() public{\n        assert(bidders[msg.sender]!=0 && highestBid!=bidders[msg.sender]);\n        uint amount = bidders[msg.sender];\n        bidders[msg.sender]=0;\n        emit bidWithdrawn(amount,msg.sender);\n        payable(msg.sender).transfer(amount);\n    }\n\n    function cancelAuction() public onlyOwner{\n        isActive=false;\n        for(uint i; i<bidderArray.length; i++){\n            if(bidders[bidderArray[i]]!=0){\n                payable(bidderArray[i]).transfer(bidders[bidderArray[i]]);\n            }\n        }\n        notifyAuctionManager(manager);\n        emit auctionCanceled(address(this),address(asset));\n        selfdestruct(payable(owner()));\n    }\n\n    function toggleStopAuction() public onlyOwner{\n        isActive=false;\n        emit setOwner(highestBidder);\n        for(uint i; i<bidderArray.length; i++){\n            if(bidderArray[i]!=highestBidder){\n                payable(bidderArray[i]).transfer(bidders[bidderArray[i]]);\n            }\n        }\n        notifyAuctionManager(manager);\n    }\n\n    function endAuction() public onlyOwner{\n        assert(!isActive);\n        require(asset.owner()==highestBidder,\"Ownership haven't changed yet\");\n        emit auctionEnded(address(this),address(asset));\n        emit newOwner(highestBidder);\n        selfdestruct(payable(owner()));\n    }\n\n    function getBalance() view public returns(uint){\n        return payable(address(this)).balance;\n    }\n\n    function getHighestBid() view public returns(uint,address){\n        return (highestBid,highestBidder);\n    }\n\n    function getAssetOnAuction() view public returns(address){\n        return address(asset);\n    }\n\n    function getMyBid() view public returns(uint bid){\n        return bidders[msg.sender];\n    }\n\n    function notifyAuctionManager(address _manager) private onlyOwner{\n        AuctionManager a = AuctionManager(_manager);\n        isNotified=a.listenToAuctionStatus(isActive);\n    }\n\n    function ping() public view returns(bool){\n        return isActive;\n    }\n\n}",
  "sourcePath": "/home/mihirsinh/Desktop/CollegeProjects/BankChain/Server/contracts/Auction.sol",
  "compiler": {
    "name": "solc",
    "version": "0.6.0+commit.26b70077.Emscripten.clang"
  },
  "schemaVersion": "3.0.23",
  "updatedAt": "2020-05-18T10:08:03.021Z",
  "devdoc": {
    "methods": {
      "owner()": {
        "details": "Returns the address of the current owner."
      }
    }
  },
  "userdoc": {
    "methods": {}
  }
}