{
  "contractName": "AuctionManager",
  "abi": [
    {
      "anonymous": false,
      "inputs": [
        {
          "indexed": false,
          "internalType": "string",
          "name": "status",
          "type": "string"
        },
        {
          "indexed": false,
          "internalType": "address",
          "name": "_auction",
          "type": "address"
        }
      ],
      "name": "auctionStatus",
      "type": "event"
    },
    {
      "inputs": [
        {
          "internalType": "bool",
          "name": "_status",
          "type": "bool"
        }
      ],
      "name": "listenToAuctionStatus",
      "outputs": [
        {
          "internalType": "bool",
          "name": "",
          "type": "bool"
        }
      ],
      "stateMutability": "nonpayable",
      "type": "function"
    },
    {
      "inputs": [
        {
          "internalType": "address",
          "name": "_asset",
          "type": "address"
        }
      ],
      "name": "getAuctionStatus",
      "outputs": [
        {
          "internalType": "address",
          "name": "auction",
          "type": "address"
        },
        {
          "internalType": "bool",
          "name": "status",
          "type": "bool"
        }
      ],
      "stateMutability": "view",
      "type": "function",
      "constant": true
    }
  ],
  "bytecode": "0x608060405234801561001057600080fd5b50610627806100206000396000f3fe608060405234801561001057600080fd5b50600436106100365760003560e01c8063ca4251f91461003b578063ef350117146100ca575b600080fd5b61007d6004803603602081101561005157600080fd5b81019080803573ffffffffffffffffffffffffffffffffffffffff169060200190929190505050610112565b604051808373ffffffffffffffffffffffffffffffffffffffff1673ffffffffffffffffffffffffffffffffffffffff168152602001821515151581526020019250505060405180910390f35b6100f8600480360360208110156100e057600080fd5b810190808035151590602001909291905050506102a8565b604051808215151515815260200191505060405180910390f35b60008060008060008573ffffffffffffffffffffffffffffffffffffffff1673ffffffffffffffffffffffffffffffffffffffff16815260200190815260200160002060009054906101000a900473ffffffffffffffffffffffffffffffffffffffff169050600073ffffffffffffffffffffffffffffffffffffffff168173ffffffffffffffffffffffffffffffffffffffff1614156101bd5760008081915092509250506102a3565b806000808673ffffffffffffffffffffffffffffffffffffffff1673ffffffffffffffffffffffffffffffffffffffff16815260200190815260200160002060009054906101000a900473ffffffffffffffffffffffffffffffffffffffff1673ffffffffffffffffffffffffffffffffffffffff16635c36b1866040518163ffffffff1660e01b815260040160206040518083038186803b15801561026257600080fd5b505afa158015610276573d6000803e3d6000fd5b505050506040513d602081101561028c57600080fd5b810190808051906020019092919050505092509250505b915091565b6000336000803373ffffffffffffffffffffffffffffffffffffffff1663465fb52a6040518163ffffffff1660e01b815260040160206040518083038186803b1580156102f457600080fd5b505afa158015610308573d6000803e3d6000fd5b505050506040513d602081101561031e57600080fd5b810190808051906020019092919050505073ffffffffffffffffffffffffffffffffffffffff1673ffffffffffffffffffffffffffffffffffffffff16815260200190815260200160002060006101000a81548173ffffffffffffffffffffffffffffffffffffffff021916908373ffffffffffffffffffffffffffffffffffffffff1602179055508161054c5760008060003373ffffffffffffffffffffffffffffffffffffffff1663465fb52a6040518163ffffffff1660e01b815260040160206040518083038186803b1580156103f757600080fd5b505afa15801561040b573d6000803e3d6000fd5b505050506040513d602081101561042157600080fd5b810190808051906020019092919050505073ffffffffffffffffffffffffffffffffffffffff1673ffffffffffffffffffffffffffffffffffffffff16815260200190815260200160002060006101000a81548173ffffffffffffffffffffffffffffffffffffffff021916908373ffffffffffffffffffffffffffffffffffffffff1602179055507f144a145eb8f0c44453b42bbb2eedfe98c44e55720df92fb510fd4eb0d1527563600060405180806020018373ffffffffffffffffffffffffffffffffffffffff1673ffffffffffffffffffffffffffffffffffffffff168152602001828103825260058152602001807f456e6465640000000000000000000000000000000000000000000000000000008152506020019250505060405180910390a16105e9565b7f144a145eb8f0c44453b42bbb2eedfe98c44e55720df92fb510fd4eb0d15275633360405180806020018373ffffffffffffffffffffffffffffffffffffffff1673ffffffffffffffffffffffffffffffffffffffff168152602001828103825260078152602001807f53746172746564000000000000000000000000000000000000000000000000008152506020019250505060405180910390a15b81905091905056fea26469706673582212202a7f449a7c42baf1a7d573be6996b205ac820a3e40aa07472b80302959dc181764736f6c63430006000033",
  "source": "pragma solidity ^0.6.0;\n\nimport './Auction.sol';\n\ncontract AuctionManager{\n\n    //add events to notify the client\n\n    mapping(address=>Auction) onGoingAssetAuction;\n\n    event auctionStatus(string status, address _auction);\n\n    function listenToAuctionStatus(bool _status) public returns(bool){\n        onGoingAssetAuction[Auction(msg.sender).getAssetOnAuction()] = Auction(msg.sender);\n        if(!_status){\n            onGoingAssetAuction[Auction(msg.sender).getAssetOnAuction()]=Auction(address(0));\n            emit auctionStatus(\"Ended\",address(0));\n        }else{\n            emit auctionStatus(\"Started\",msg.sender);\n        }\n        return (_status);\n    }\n\n    function getAuctionStatus(address _asset) view public returns(address auction, bool status){\n        address _temp = address(onGoingAssetAuction[_asset]);\n        if(_temp==address(0)){\n            return (address(0),false);\n        }else {\n            return (_temp,onGoingAssetAuction[_asset].ping());\n        }\n    }\n}\n",
  "sourcePath": "/home/mihirsinh/Desktop/CollegeProjects/BankChain/Server/contracts/AuctionManager.sol",
  "compiler": {
    "name": "solc",
    "version": "0.6.0+commit.26b70077.Emscripten.clang"
  },
  "schemaVersion": "3.0.23",
  "updatedAt": "2020-05-19T11:08:51.419Z",
  "networkType": "ethereum",
  "devdoc": {
    "methods": {}
  },
  "userdoc": {
    "methods": {}
  }
}