{
  "contractName": "AssetManager",
  "abi": [
    {
      "anonymous": false,
      "inputs": [
        {
          "indexed": true,
          "internalType": "address",
          "name": "previousOwner",
          "type": "address"
        },
        {
          "indexed": true,
          "internalType": "address",
          "name": "newOwner",
          "type": "address"
        }
      ],
      "name": "OwnershipTransferred",
      "type": "event"
    },
    {
      "anonymous": false,
      "inputs": [
        {
          "indexed": false,
          "internalType": "string",
          "name": "state",
          "type": "string"
        },
        {
          "indexed": false,
          "internalType": "uint256",
          "name": "stateCode",
          "type": "uint256"
        },
        {
          "indexed": false,
          "internalType": "uint256",
          "name": "id",
          "type": "uint256"
        },
        {
          "indexed": false,
          "internalType": "string",
          "name": "name",
          "type": "string"
        },
        {
          "indexed": false,
          "internalType": "address",
          "name": "npaAddress",
          "type": "address"
        }
      ],
      "name": "eventState",
      "type": "event"
    },
    {
      "anonymous": false,
      "inputs": [
        {
          "indexed": false,
          "internalType": "uint256",
          "name": "id",
          "type": "uint256"
        },
        {
          "indexed": false,
          "internalType": "address",
          "name": "npa",
          "type": "address"
        }
      ],
      "name": "npaAddress",
      "type": "event"
    },
    {
      "inputs": [],
      "name": "owner",
      "outputs": [
        {
          "internalType": "address",
          "name": "",
          "type": "address"
        }
      ],
      "stateMutability": "view",
      "type": "function",
      "constant": true
    },
    {
      "inputs": [
        {
          "internalType": "uint256",
          "name": "_id",
          "type": "uint256"
        }
      ],
      "name": "getNPA",
      "outputs": [
        {
          "internalType": "uint256",
          "name": "id",
          "type": "uint256"
        },
        {
          "internalType": "address",
          "name": "add",
          "type": "address"
        }
      ],
      "stateMutability": "view",
      "type": "function",
      "constant": true
    },
    {
      "inputs": [
        {
          "internalType": "uint256",
          "name": "_id",
          "type": "uint256"
        }
      ],
      "name": "getBank",
      "outputs": [
        {
          "internalType": "address",
          "name": "",
          "type": "address"
        },
        {
          "internalType": "string",
          "name": "",
          "type": "string"
        }
      ],
      "stateMutability": "view",
      "type": "function",
      "constant": true
    },
    {
      "inputs": [
        {
          "internalType": "string",
          "name": "_bankName",
          "type": "string"
        },
        {
          "internalType": "string",
          "name": "_assetOnAuction",
          "type": "string"
        },
        {
          "internalType": "uint256",
          "name": "_auctionID",
          "type": "uint256"
        },
        {
          "internalType": "string",
          "name": "_eventType",
          "type": "string"
        },
        {
          "internalType": "string",
          "name": "_city",
          "type": "string"
        },
        {
          "internalType": "uint256",
          "name": "_reservePrice",
          "type": "uint256"
        },
        {
          "internalType": "uint256",
          "name": "_EMD",
          "type": "uint256"
        },
        {
          "internalType": "uint256",
          "name": "_bidMultiplier",
          "type": "uint256"
        },
        {
          "internalType": "uint256",
          "name": "_timestamp",
          "type": "uint256"
        }
      ],
      "name": "addNPA",
      "outputs": [],
      "stateMutability": "nonpayable",
      "type": "function"
    }
  ],
  "bytecode": "0x6080604052606460025560c860045561012c600655610190600855600061002a6100cd60201b60201c565b9050806000806101000a81548173ffffffffffffffffffffffffffffffffffffffff021916908373ffffffffffffffffffffffffffffffffffffffff1602179055508073ffffffffffffffffffffffffffffffffffffffff16600073ffffffffffffffffffffffffffffffffffffffff167f8be0079c531659141344cd1fd0a4f28419497f9722a3daafe3b4186f6b6457e060405160405180910390a3506100d5565b600033905090565b612cbc806100e46000396000f3fe60806040523480156200001157600080fd5b5060043610620000525760003560e01c80638da5cb5b1462000057578063b810c59714620000a3578063c3b95b1b146200011b578063d32ccd1714620001fb575b600080fd5b62000061620004bd565b604051808273ffffffffffffffffffffffffffffffffffffffff1673ffffffffffffffffffffffffffffffffffffffff16815260200191505060405180910390f35b620000d260048036036020811015620000bb57600080fd5b8101908080359060200190929190505050620004e6565b604051808381526020018273ffffffffffffffffffffffffffffffffffffffff1673ffffffffffffffffffffffffffffffffffffffff1681526020019250505060405180910390f35b6200014a600480360360208110156200013357600080fd5b810190808035906020019092919050505062000530565b604051808373ffffffffffffffffffffffffffffffffffffffff1673ffffffffffffffffffffffffffffffffffffffff16815260200180602001828103825283818151815260200191508051906020019080838360005b83811015620001be578082015181840152602081019050620001a1565b50505050905090810190601f168015620001ec5780820380516001836020036101000a031916815260200191505b50935050505060405180910390f35b620004bb60048036036101208110156200021457600080fd5b81019080803590602001906401000000008111156200023257600080fd5b8201836020820111156200024557600080fd5b803590602001918460018302840111640100000000831117156200026857600080fd5b91908080601f016020809104026020016040519081016040528093929190818152602001838380828437600081840152601f19601f82011690508083019250505050505050919291929080359060200190640100000000811115620002cc57600080fd5b820183602082011115620002df57600080fd5b803590602001918460018302840111640100000000831117156200030257600080fd5b91908080601f016020809104026020016040519081016040528093929190818152602001838380828437600081840152601f19601f82011690508083019250505050505050919291929080359060200190929190803590602001906401000000008111156200037057600080fd5b8201836020820111156200038357600080fd5b80359060200191846001830284011164010000000083111715620003a657600080fd5b91908080601f016020809104026020016040519081016040528093929190818152602001838380828437600081840152601f19601f820116905080830192505050505050509192919290803590602001906401000000008111156200040a57600080fd5b8201836020820111156200041d57600080fd5b803590602001918460018302840111640100000000831117156200044057600080fd5b91908080601f016020809104026020016040519081016040528093929190818152602001838380828437600081840152601f19601f820116905080830192505050505050509192919290803590602001909291908035906020019092919080359060200190929190803590602001909291905050506200062d565b005b60008060009054906101000a900473ffffffffffffffffffffffffffffffffffffffff16905090565b60008060006007600085815260200190815260200160002060010160009054906101000a900473ffffffffffffffffffffffffffffffffffffffff16905083819250925050915091565b600060606001600084815260200190815260200160002060000160009054906101000a900473ffffffffffffffffffffffffffffffffffffffff1660016000858152602001908152602001600020600101819150808054600181600116156101000203166002900480601f0160208091040260200160405190810160405280929190818152602001828054600181600116156101000203166002900480156200061d5780601f10620005f1576101008083540402835291602001916200061d565b820191906000526020600020905b815481529060010190602001808311620005ff57829003601f168201915b5050505050905091509150915091565b6200063762000c45565b73ffffffffffffffffffffffffffffffffffffffff166000809054906101000a900473ffffffffffffffffffffffffffffffffffffffff1673ffffffffffffffffffffffffffffffffffffffff1614620006f9576040517f08c379a00000000000000000000000000000000000000000000000000000000081526004018080602001828103825260208152602001807f4f776e61626c653a2063616c6c6572206973206e6f7420746865206f776e657281525060200191505060405180910390fd5b600454620007078862000c4d565b101562000808577fe76c822f6fbd9c15397238632a6cd69cd897fb6f8bb595172564a8efc187261d6001808111156200073c57fe5b60085460006040518080602001858152602001848152602001806020018473ffffffffffffffffffffffffffffffffffffffff1673ffffffffffffffffffffffffffffffffffffffff1681526020018381038352600d8152602001807f416c7265616479206578697374000000000000000000000000000000000000008152506020018381038252600d8152602001807f5f626f72726f7765724e616d65000000000000000000000000000000000000008152506020019550505050505060405180910390a162000c3a565b600033306008548b8d6200081c8d62000c4d565b620008278d62000ea9565b8c8c8c8c8c6040516200083a90620015d8565b808d73ffffffffffffffffffffffffffffffffffffffff1673ffffffffffffffffffffffffffffffffffffffff1681526020018c73ffffffffffffffffffffffffffffffffffffffff1673ffffffffffffffffffffffffffffffffffffffff1681526020018b815260200180602001806020018a81526020018981526020018060200188815260200187815260200186815260200185815260200184810384528d818151815260200191508051906020019080838360005b838110156200090f578082015181840152602081019050620008f2565b50505050905090810190601f1680156200093d5780820380516001836020036101000a031916815260200191505b5084810383528c818151815260200191508051906020019080838360005b83811015620009785780820151818401526020810190506200095b565b50505050905090810190601f168015620009a65780820380516001836020036101000a031916815260200191505b50848103825289818151815260200191508051906020019080838360005b83811015620009e1578082015181840152602081019050620009c4565b50505050905090810190601f16801562000a0f5780820380516001836020036101000a031916815260200191505b509f50505050505050505050505050505050604051809103906000f08015801562000a3e573d6000803e3d6000fd5b5090508060076000600854815260200190815260200160002060010160006101000a81548173ffffffffffffffffffffffffffffffffffffffff021916908373ffffffffffffffffffffffffffffffffffffffff1602179055508060076000600854815260200190815260200160002060000160006101000a81548173ffffffffffffffffffffffffffffffffffffffff021916908373ffffffffffffffffffffffffffffffffffffffff16021790555062000afa8a6200123e565b6007600060085481526020019081526020016000206002018190555087600760006008548152602001908152602001600020600301819055507fe76c822f6fbd9c15397238632a6cd69cd897fb6f8bb595172564a8efc187261d60018081111562000b6157fe5b600854836040518080602001858152602001848152602001806020018473ffffffffffffffffffffffffffffffffffffffff1673ffffffffffffffffffffffffffffffffffffffff1681526020018381038352600b8152602001807f4e504120437265617465640000000000000000000000000000000000000000008152506020018381038252600d8152602001807f5f626f72726f7765724e616d65000000000000000000000000000000000000008152506020019550505050505060405180910390a1600860008154809291906001019190505550505b505050505050505050565b600033905090565b600062000c5962000c45565b73ffffffffffffffffffffffffffffffffffffffff166000809054906101000a900473ffffffffffffffffffffffffffffffffffffffff1673ffffffffffffffffffffffffffffffffffffffff161462000d1b576040517f08c379a00000000000000000000000000000000000000000000000000000000081526004018080602001828103825260208152602001807f4f776e61626c653a2063616c6c6572206973206e6f7420746865206f776e657281525060200191505060405180910390fd5b6000809050600060c890505b60045481101562000d6b57836003600083815260200190815260200160002054141562000d5d5760019150809250505062000ea4565b808060010191505062000d27565b508062000ea25782600360006004548152602001908152602001600020819055507fe76c822f6fbd9c15397238632a6cd69cd897fb6f8bb595172564a8efc187261d6000600181111562000dbb57fe5b60045460006040518080602001858152602001848152602001806020018473ffffffffffffffffffffffffffffffffffffffff1673ffffffffffffffffffffffffffffffffffffffff1681526020018381038352600c8152602001807f456e746974792041646465640000000000000000000000000000000000000000815250602001838103825260078152602001807f53756363657373000000000000000000000000000000000000000000000000008152506020019550505050505060405180910390a160046000815480929190600101919050555060016004540391505062000ea4565b505b919050565b600062000eb562000c45565b73ffffffffffffffffffffffffffffffffffffffff166000809054906101000a900473ffffffffffffffffffffffffffffffffffffffff1673ffffffffffffffffffffffffffffffffffffffff161462000f77576040517f08c379a00000000000000000000000000000000000000000000000000000000081526004018080602001828103825260208152602001807f4f776e61626c653a2063616c6c6572206973206e6f7420746865206f776e657281525060200191505060405180910390fd5b6000809050600061012c90505b600654811015620010b757600560008281526020019081526020016000206040516020018082805460018160011615610100020316600290048015620010045780601f1062000fe157610100808354040283529182019162001004565b820191906000526020600020905b81548152906001019060200180831162000fef575b505091505060405160208183030381529060405280519060200120846040516020018082805190602001908083835b6020831062001058578051825260208201915060208101905060208303925062001033565b6001836020036101000a038019825116818451168082178552505050505050905001915050604051602081830303815290604052805190602001201415620010a95760019150809250505062001239565b808060010191505062000f84565b50806200123757826005600060065481526020019081526020016000209080519060200190620010e9929190620015e6565b507fe76c822f6fbd9c15397238632a6cd69cd897fb6f8bb595172564a8efc187261d600060018111156200111957fe5b6006548560006040518080602001868152602001858152602001806020018473ffffffffffffffffffffffffffffffffffffffff1673ffffffffffffffffffffffffffffffffffffffff1681526020018381038352600c8152602001807f456e746974792041646465640000000000000000000000000000000000000000815250602001838103825285818151815260200191508051906020019080838360005b83811015620011d7578082015181840152602081019050620011ba565b50505050905090810190601f168015620012055780820380516001836020036101000a031916815260200191505b50965050505050505060405180910390a160066000815480929190600101919050555060016006540391505062001239565b505b919050565b60006200124a62000c45565b73ffffffffffffffffffffffffffffffffffffffff166000809054906101000a900473ffffffffffffffffffffffffffffffffffffffff1673ffffffffffffffffffffffffffffffffffffffff16146200130c576040517f08c379a00000000000000000000000000000000000000000000000000000000081526004018080602001828103825260208152602001807f4f776e61626c653a2063616c6c6572206973206e6f7420746865206f776e657281525060200191505060405180910390fd5b60008090506000606490505b6002548110156200144e576001600082815260200190815260200160002060010160405160200180828054600181600116156101000203166002900480156200139b5780601f10620013785761010080835404028352918201916200139b565b820191906000526020600020905b81548152906001019060200180831162001386575b505091505060405160208183030381529060405280519060200120846040516020018082805190602001908083835b60208310620013ef5780518252602082019150602081019050602083039250620013ca565b6001836020036101000a0380198251168184511680821785525050505050509050019150506040516020818303038152906040528051906020012014156200144057600191508092505050620015d3565b808060010191505062001318565b5080620015d15782600160006002548152602001908152602001600020600101908051906020019062001483929190620015e6565b507fe76c822f6fbd9c15397238632a6cd69cd897fb6f8bb595172564a8efc187261d60006001811115620014b357fe5b6002548560006040518080602001868152602001858152602001806020018473ffffffffffffffffffffffffffffffffffffffff1673ffffffffffffffffffffffffffffffffffffffff1681526020018381038352600c8152602001807f456e746974792041646465640000000000000000000000000000000000000000815250602001838103825285818151815260200191508051906020019080838360005b838110156200157157808201518184015260208101905062001554565b50505050905090810190601f1680156200159f5780820380516001836020036101000a031916815260200191505b50965050505050505060405180910390a1600260008154809291906001019190505550600160025403915050620015d3565b505b919050565b6115f1806200169683390190565b828054600181600116156101000203166002900490600052602060002090601f016020900481019282601f106200162957805160ff19168380011785556200165a565b828001600101855582156200165a579182015b82811115620016595782518255916020019190600101906200163c565b5b5090506200166991906200166d565b5090565b6200169291905b808211156200168e57600081600090555060010162001674565b5090565b9056fe6080604052670de0b6b3a76400006001553480156200001d57600080fd5b50604051620015f1380380620015f183398181016040526101808110156200004457600080fd5b81019080805190602001909291908051906020019092919080519060200190929190805160405193929190846401000000008211156200008357600080fd5b838201915060208201858111156200009a57600080fd5b8251866001820283011164010000000082111715620000b857600080fd5b8083526020830192505050908051906020019080838360005b83811015620000ee578082015181840152602081019050620000d1565b50505050905090810190601f1680156200011c5780820380516001836020036101000a031916815260200191505b50604052602001805160405193929190846401000000008211156200014057600080fd5b838201915060208201858111156200015757600080fd5b82518660018202830111640100000000821117156200017557600080fd5b8083526020830192505050908051906020019080838360005b83811015620001ab5780820151818401526020810190506200018e565b50505050905090810190601f168015620001d95780820380516001836020036101000a031916815260200191505b506040526020018051906020019092919080519060200190929190805160405193929190846401000000008211156200021157600080fd5b838201915060208201858111156200022857600080fd5b82518660018202830111640100000000821117156200024657600080fd5b8083526020830192505050908051906020019080838360005b838110156200027c5780820151818401526020810190506200025f565b50505050905090810190601f168015620002aa5780820380516001836020036101000a031916815260200191505b50604052602001805190602001909291908051906020019092919080519060200190929190805190602001909291905050506000620002ee6200049e60201b60201c565b9050806000806101000a81548173ffffffffffffffffffffffffffffffffffffffff021916908373ffffffffffffffffffffffffffffffffffffffff1602179055508073ffffffffffffffffffffffffffffffffffffffff16600073ffffffffffffffffffffffffffffffffffffffff167f8be0079c531659141344cd1fd0a4f28419497f9722a3daafe3b4186f6b6457e060405160405180910390a3508a600f60006101000a81548173ffffffffffffffffffffffffffffffffffffffff021916908373ffffffffffffffffffffffffffffffffffffffff160217905550896005819055508860069080519060200190620003ec929190620006d2565b50876007908051906020019062000405929190620006d2565b50866008819055508560098190555084600a90805190602001906200042c929190620006d2565b5083600b8190555082600c8190555081600d8190555080600e819055506000600460006101000a81548160ff021916908360028111156200046957fe5b0217905550620004848c620004a660201b62000b9c1760201c565b600260038190555050505050505050505050505062000781565b600033905090565b620004b66200049e60201b60201c565b73ffffffffffffffffffffffffffffffffffffffff166000809054906101000a900473ffffffffffffffffffffffffffffffffffffffff1673ffffffffffffffffffffffffffffffffffffffff161462000578576040517f08c379a00000000000000000000000000000000000000000000000000000000081526004018080602001828103825260208152602001807f4f776e61626c653a2063616c6c6572206973206e6f7420746865206f776e657281525060200191505060405180910390fd5b62000589816200058c60201b60201c565b50565b600073ffffffffffffffffffffffffffffffffffffffff168173ffffffffffffffffffffffffffffffffffffffff16141562000614576040517f08c379a0000000000000000000000000000000000000000000000000000000008152600401808060200182810382526026815260200180620015cb6026913960400191505060405180910390fd5b8073ffffffffffffffffffffffffffffffffffffffff166000809054906101000a900473ffffffffffffffffffffffffffffffffffffffff1673ffffffffffffffffffffffffffffffffffffffff167f8be0079c531659141344cd1fd0a4f28419497f9722a3daafe3b4186f6b6457e060405160405180910390a3806000806101000a81548173ffffffffffffffffffffffffffffffffffffffff021916908373ffffffffffffffffffffffffffffffffffffffff16021790555050565b828054600181600116156101000203166002900490600052602060002090601f016020900481019282601f106200071557805160ff191683800117855562000746565b8280016001018555821562000746579182015b828111156200074557825182559160200191906001019062000728565b5b50905062000755919062000759565b5090565b6200077e91905b808211156200077a57600081600090555060010162000760565b5090565b90565b610e3a80620007916000396000f3fe6080604052600436106100595760003560e01c806312065fe01461019e5780633e2fe149146101c9578063880ad0af146102205780638da5cb5b14610237578063c899c9a41461028e578063f5a1f5b41461042757610199565b366101995734600154600354021480156100ff5750600260009054906101000a900473ffffffffffffffffffffffffffffffffffffffff1673ffffffffffffffffffffffffffffffffffffffff163373ffffffffffffffffffffffffffffffffffffffff161480156100fe57506100ce610478565b73ffffffffffffffffffffffffffffffffffffffff163373ffffffffffffffffffffffffffffffffffffffff1614155b5b610171576040517f08c379a000000000000000000000000000000000000000000000000000000000815260040180806020018281038252600b8152602001807f496e76616c69642054786e00000000000000000000000000000000000000000081525060200191505060405180910390fd5b3373ffffffffffffffffffffffffffffffffffffffff16600260009054906101000a90505050005b600080fd5b3480156101aa57600080fd5b506101b36104a1565b6040518082815260200191505060405180910390f35b3480156101d557600080fd5b506101de6104c0565b604051808273ffffffffffffffffffffffffffffffffffffffff1673ffffffffffffffffffffffffffffffffffffffff16815260200191505060405180910390f35b34801561022c57600080fd5b506102356104ea565b005b34801561024357600080fd5b5061024c610478565b604051808273ffffffffffffffffffffffffffffffffffffffff1673ffffffffffffffffffffffffffffffffffffffff16815260200191505060405180910390f35b34801561029a57600080fd5b506102a361073c565b604051808b815260200180602001806020018a81526020018981526020018060200188815260200187815260200186815260200185815260200184810384528d818151815260200191508051906020019080838360005b838110156103155780820151818401526020810190506102fa565b50505050905090810190601f1680156103425780820380516001836020036101000a031916815260200191505b5084810383528c818151815260200191508051906020019080838360005b8381101561037b578082015181840152602081019050610360565b50505050905090810190601f1680156103a85780820380516001836020036101000a031916815260200191505b50848103825289818151815260200191508051906020019080838360005b838110156103e15780820151818401526020810190506103c6565b50505050905090810190601f16801561040e5780820380516001836020036101000a031916815260200191505b509d505050505050505050505050505060405180910390f35b34801561043357600080fd5b506104766004803603602081101561044a57600080fd5b81019080803573ffffffffffffffffffffffffffffffffffffffff16906020019092919050505061095b565b005b60008060009054906101000a900473ffffffffffffffffffffffffffffffffffffffff16905090565b60003073ffffffffffffffffffffffffffffffffffffffff1631905090565b6000600260009054906101000a900473ffffffffffffffffffffffffffffffffffffffff16905090565b6104f2610b94565b73ffffffffffffffffffffffffffffffffffffffff166000809054906101000a900473ffffffffffffffffffffffffffffffffffffffff1673ffffffffffffffffffffffffffffffffffffffff16146105b3576040517f08c379a00000000000000000000000000000000000000000000000000000000081526004018080602001828103825260208152602001807f4f776e61626c653a2063616c6c6572206973206e6f7420746865206f776e657281525060200191505060405180910390fd5b600073ffffffffffffffffffffffffffffffffffffffff16600260009054906101000a900473ffffffffffffffffffffffffffffffffffffffff1673ffffffffffffffffffffffffffffffffffffffff161415610678576040517f08c379a00000000000000000000000000000000000000000000000000000000081526004018080602001828103825260198152602001807f43616e6e6f74207472616e73666572206f6e776572736869700000000000000081525060200191505060405180910390fd5b610680610478565b73ffffffffffffffffffffffffffffffffffffffff166108fc6106a16104a1565b9081150290604051600060405180830381858888f193505050501580156106cc573d6000803e3d6000fd5b506106f8600260009054906101000a900473ffffffffffffffffffffffffffffffffffffffff16610b9c565b6000600260006101000a81548173ffffffffffffffffffffffffffffffffffffffff021916908373ffffffffffffffffffffffffffffffffffffffff160217905550565b6000606080600080606060008060008060055460066007600854600954600a600b54600c54600d54600e54888054600181600116156101000203166002900480601f0160208091040260200160405190810160405280929190818152602001828054600181600116156101000203166002900480156107fc5780601f106107d1576101008083540402835291602001916107fc565b820191906000526020600020905b8154815290600101906020018083116107df57829003601f168201915b50505050509850878054600181600116156101000203166002900480601f0160208091040260200160405190810160405280929190818152602001828054600181600116156101000203166002900480156108985780601f1061086d57610100808354040283529160200191610898565b820191906000526020600020905b81548152906001019060200180831161087b57829003601f168201915b50505050509750848054600181600116156101000203166002900480601f0160208091040260200160405190810160405280929190818152602001828054600181600116156101000203166002900480156109345780601f1061090957610100808354040283529160200191610934565b820191906000526020600020905b81548152906001019060200180831161091757829003601f168201915b50505050509450995099509950995099509950995099509950995090919293949596979899565b610963610b94565b73ffffffffffffffffffffffffffffffffffffffff166000809054906101000a900473ffffffffffffffffffffffffffffffffffffffff1673ffffffffffffffffffffffffffffffffffffffff1614610a24576040517f08c379a00000000000000000000000000000000000000000000000000000000081526004018080602001828103825260208152602001807f4f776e61626c653a2063616c6c6572206973206e6f7420746865206f776e657281525060200191505060405180910390fd5b600073ffffffffffffffffffffffffffffffffffffffff16600260009054906101000a900473ffffffffffffffffffffffffffffffffffffffff1673ffffffffffffffffffffffffffffffffffffffff1614610acb576040517f08c379a0000000000000000000000000000000000000000000000000000000008152600401808060200182810382526029815260200180610ddc6029913960400191505060405180910390fd5b80600260006101000a81548173ffffffffffffffffffffffffffffffffffffffff021916908373ffffffffffffffffffffffffffffffffffffffff1602179055507f87b4da307457b6261615bf8bd4c11a0245bf153d90edfa5e36f840dd42f55027600260009054906101000a900473ffffffffffffffffffffffffffffffffffffffff16604051808273ffffffffffffffffffffffffffffffffffffffff1673ffffffffffffffffffffffffffffffffffffffff16815260200191505060405180910390a150565b600033905090565b610ba4610b94565b73ffffffffffffffffffffffffffffffffffffffff166000809054906101000a900473ffffffffffffffffffffffffffffffffffffffff1673ffffffffffffffffffffffffffffffffffffffff1614610c65576040517f08c379a00000000000000000000000000000000000000000000000000000000081526004018080602001828103825260208152602001807f4f776e61626c653a2063616c6c6572206973206e6f7420746865206f776e657281525060200191505060405180910390fd5b610c6e81610c71565b50565b600073ffffffffffffffffffffffffffffffffffffffff168173ffffffffffffffffffffffffffffffffffffffff161415610cf7576040517f08c379a0000000000000000000000000000000000000000000000000000000008152600401808060200182810382526026815260200180610db66026913960400191505060405180910390fd5b8073ffffffffffffffffffffffffffffffffffffffff166000809054906101000a900473ffffffffffffffffffffffffffffffffffffffff1673ffffffffffffffffffffffffffffffffffffffff167f8be0079c531659141344cd1fd0a4f28419497f9722a3daafe3b4186f6b6457e060405160405180910390a3806000806101000a81548173ffffffffffffffffffffffffffffffffffffffff021916908373ffffffffffffffffffffffffffffffffffffffff1602179055505056fe4f776e61626c653a206e6577206f776e657220697320746865207a65726f206164647265737350726576696f7573206f776e65727368697020686176656e2774207472616e73666572656420796574a2646970667358221220fc222736e361fff1c666d5766a763479ae42ffbf283204a667558efeb6df7ead64736f6c634300060000334f776e61626c653a206e6577206f776e657220697320746865207a65726f2061646472657373a26469706673582212201bc4b5c633f1cce77fce2f4d713ae673bcd08b1dc65b1a15f960bd6b291ee3a664736f6c63430006000033",
  "source": "pragma solidity ^0.6.0;\r\n\r\n// Import AssetInterface contract to create instance of a NPA\r\nimport \"./AssetInterface.sol\";\r\n\r\n// Import Ownable contract by OpenZeppelin to make only Owner access for various functions\r\nimport \"./Ownable.sol\";\r\n\r\ncontract AssetManager is Ownable{\r\n\r\n    // example for bank address = 0xdD870fA1b7C4700F2BD7f44238821C26f7392148\r\n\r\n    //****-----Start of variable declaration-----****//\r\n\r\n    enum EventType{EntityAdded,NPA_Created}\r\n\r\n    struct bank{\r\n        address payable bankAddress;\r\n        string bankName;\r\n    }\r\n\r\n    //Mapping of different banks with index starting from 100\r\n    mapping(uint=>bank) bankList;\r\n    uint bankListIndex = 100;\r\n\r\n    //Mapping of different sectors with index starting from 200\r\n    mapping(uint=>uint) auctionList;\r\n    uint auctionIndex = 200;\r\n\r\n    //    Mapping of different eventType with index starting from 300\r\n    mapping(uint=>string) eventTypes;\r\n    uint eventIndex=300;\r\n\r\n    //Structure to store the NPA contract instance and address of that instance for further interaction\r\n    struct S_NPA\r\n    {\r\n        AssetInterface npa;\r\n        address npaContract;\r\n        uint bankId;\r\n        uint auctionId;\r\n\r\n    }\r\n    //Mapping of different NPA structures with index starting from 400\r\n    mapping(uint=>S_NPA) NPA_List;\r\n    uint NPA_ListIndex=400;\r\n\r\n    //Event to generate LOG of the NPA instance and it's address\r\n    event eventState(string state,uint stateCode,uint id,string name,address npaAddress);\r\n\r\n    event npaAddress(uint id, address npa);\r\n\r\n    //****-----End of variable declaration-----****//\r\n\r\n    function getNPA(uint _id) view public returns(uint id, address add){\r\n        address npa =  NPA_List[_id].npaContract;\r\n        return (_id,npa);\r\n    }\r\n\r\n    // function getBalance() view public returns(uint){\r\n    //     return payable(address(this)).balance;\r\n    // }\r\n\r\n    function getBank(uint _id) view public returns(address,string memory){\r\n        return (bankList[_id].bankAddress,bankList[_id].bankName);\r\n    }\r\n\r\n    // Add Bank function which first checks if the bank is already initialized or not, if initialized returns ID of that bank else emit event added\r\n    function addBankIfNotExist(string memory _bankName) private onlyOwner returns(uint){\r\n        bool bankExist = false;\r\n        for(uint i = 100; i<bankListIndex; i++){\r\n            if(keccak256(abi.encodePacked((_bankName))) == keccak256(abi.encodePacked(bankList[i].bankName))){\r\n                bankExist=true;\r\n                return i;\r\n            }\r\n        }\r\n        if(!bankExist){\r\n            bankList[bankListIndex].bankName=_bankName;\r\n            emit eventState(\"Entity Added\",uint(EventType.EntityAdded),bankListIndex,_bankName, address(0));\r\n            bankListIndex++;\r\n            return bankListIndex-1;\r\n        }\r\n    }\r\n\r\n    // Add Sector function which first checks if the bank is already initialized or not, if initialized returns ID of that bank else emit event added\r\n    function addAuctionIdIfNotExist(uint _auctionID) private onlyOwner returns(uint){\r\n        bool auctionExist=false;\r\n        for(uint j = 200; j<auctionIndex; j++){\r\n            if(auctionList[j]==_auctionID){\r\n                auctionExist=true;\r\n                return j;\r\n            }\r\n        }\r\n        if(!auctionExist){\r\n            auctionList[auctionIndex]=_auctionID;\r\n            emit eventState(\"Entity Added\",uint(EventType.EntityAdded),auctionIndex,\"Success\", address(0));\r\n            auctionIndex++;\r\n            return auctionIndex-1;\r\n        }\r\n    }\r\n    //\r\n    //      Add Borrower function which first checks if the bank is already initialized or not, if initialized returns ID of that bank else emit event added\r\n    function addEventTypeIfNotExist(string memory _eventName) private onlyOwner returns(uint){\r\n        bool eventExist=false;\r\n        for(uint k = 300; k<eventIndex; k++){\r\n            if(keccak256(abi.encodePacked((_eventName))) == keccak256(abi.encodePacked(eventTypes[k]))){\r\n                eventExist=true;\r\n                return k;\r\n            }\r\n        }\r\n        if(!eventExist){\r\n            eventTypes[eventIndex]=_eventName;\r\n            emit eventState(\"Entity Added\",uint(EventType.EntityAdded),eventIndex,_eventName,address(0));\r\n            eventIndex++;\r\n            return eventIndex-1;\r\n        }\r\n    }\r\n\r\n    function addNPA(string memory _bankName,string memory _assetOnAuction,uint _auctionID, string memory _eventType, string memory _city,\r\n        uint _reservePrice,uint _EMD,uint _bidMultiplier, uint _timestamp) public onlyOwner{\r\n\r\n        if(addAuctionIdIfNotExist(_auctionID)<auctionIndex){\r\n            emit eventState(\"Already exist\",uint(EventType.NPA_Created),NPA_ListIndex,\"_borrowerName\", address(0));\r\n        }else{\r\n            //  Creating AssetInterface contract of a NPA\r\n            AssetInterface item = new AssetInterface(msg.sender, this, NPA_ListIndex, _assetOnAuction,\r\n                _bankName, addAuctionIdIfNotExist(_auctionID), addEventTypeIfNotExist(_eventType),\r\n                _city, _reservePrice, _EMD, _bidMultiplier, _timestamp);\r\n\r\n            // Adding the NPA and address of that NPA to Structure\r\n            NPA_List[NPA_ListIndex].npaContract = address(item);\r\n            NPA_List[NPA_ListIndex].npa = item;\r\n            NPA_List[NPA_ListIndex].bankId = addBankIfNotExist(_bankName);\r\n            NPA_List[NPA_ListIndex].auctionId=_auctionID;\r\n            emit eventState(\"NPA Created\",uint(EventType.NPA_Created),NPA_ListIndex,\"_borrowerName\", address(item));\r\n            NPA_ListIndex++;\r\n        }\r\n    }\r\n}\r\n\r\n",
  "sourcePath": "/home/mihirsinh/Desktop/CollegeProjects/BankChain/Server/contracts/AssetManager.sol",
  "compiler": {
    "name": "solc",
    "version": "0.6.0+commit.26b70077.Emscripten.clang"
  },
  "schemaVersion": "3.0.23",
  "updatedAt": "2020-05-19T11:08:51.410Z",
  "networkType": "ethereum",
  "devdoc": {
    "methods": {
      "owner()": {
        "details": "Returns the address of the current owner."
      }
    }
  },
  "userdoc": {
    "methods": {}
  }
}